{
  "_format": "hh-sol-artifact-1",
  "contractName": "ProposalVote",
  "sourceName": "contracts/ProposalVote.sol",
  "abi": [
    {
      "anonymous": false,
      "inputs": [
        {
          "indexed": true,
          "internalType": "string",
          "name": "name",
          "type": "string"
        },
        {
          "indexed": false,
          "internalType": "uint256",
          "name": "count",
          "type": "uint256"
        }
      ],
      "name": "ProposalActive",
      "type": "event"
    },
    {
      "anonymous": false,
      "inputs": [
        {
          "indexed": true,
          "internalType": "string",
          "name": "name",
          "type": "string"
        },
        {
          "indexed": false,
          "internalType": "uint256",
          "name": "count",
          "type": "uint256"
        }
      ],
      "name": "ProposalApproved",
      "type": "event"
    },
    {
      "anonymous": false,
      "inputs": [
        {
          "indexed": true,
          "internalType": "string",
          "name": "name",
          "type": "string"
        },
        {
          "indexed": false,
          "internalType": "uint16",
          "name": "quorum",
          "type": "uint16"
        }
      ],
      "name": "ProposalCreated",
      "type": "event"
    },
    {
      "inputs": [
        {
          "internalType": "string",
          "name": "_name",
          "type": "string"
        },
        {
          "internalType": "string",
          "name": "_desc",
          "type": "string"
        },
        {
          "internalType": "uint16",
          "name": "_quorum",
          "type": "uint16"
        }
      ],
      "name": "createProposal",
      "outputs": [],
      "stateMutability": "nonpayable",
      "type": "function"
    },
    {
      "inputs": [
        {
          "internalType": "uint8",
          "name": "_index",
          "type": "uint8"
        }
      ],
      "name": "getAProposal",
      "outputs": [
        {
          "internalType": "string",
          "name": "name_",
          "type": "string"
        },
        {
          "internalType": "string",
          "name": "desc_",
          "type": "string"
        },
        {
          "internalType": "uint16",
          "name": "count_",
          "type": "uint16"
        },
        {
          "internalType": "address[]",
          "name": "voters_",
          "type": "address[]"
        },
        {
          "internalType": "uint16",
          "name": "quorum_",
          "type": "uint16"
        },
        {
          "internalType": "enum ProposalVote.PropsStatus",
          "name": "status_",
          "type": "uint8"
        }
      ],
      "stateMutability": "view",
      "type": "function"
    },
    {
      "inputs": [],
      "name": "getAllProposals",
      "outputs": [
        {
          "components": [
            {
              "internalType": "string",
              "name": "name",
              "type": "string"
            },
            {
              "internalType": "string",
              "name": "description",
              "type": "string"
            },
            {
              "internalType": "uint16",
              "name": "voteCount",
              "type": "uint16"
            },
            {
              "internalType": "address[]",
              "name": "voters",
              "type": "address[]"
            },
            {
              "internalType": "uint16",
              "name": "quorum",
              "type": "uint16"
            },
            {
              "internalType": "enum ProposalVote.PropsStatus",
              "name": "status",
              "type": "uint8"
            }
          ],
          "internalType": "struct ProposalVote.Proposal[]",
          "name": "",
          "type": "tuple[]"
        }
      ],
      "stateMutability": "view",
      "type": "function"
    },
    {
      "inputs": [
        {
          "internalType": "uint256",
          "name": "",
          "type": "uint256"
        }
      ],
      "name": "proposals",
      "outputs": [
        {
          "internalType": "string",
          "name": "name",
          "type": "string"
        },
        {
          "internalType": "string",
          "name": "description",
          "type": "string"
        },
        {
          "internalType": "uint16",
          "name": "voteCount",
          "type": "uint16"
        },
        {
          "internalType": "uint16",
          "name": "quorum",
          "type": "uint16"
        },
        {
          "internalType": "enum ProposalVote.PropsStatus",
          "name": "status",
          "type": "uint8"
        }
      ],
      "stateMutability": "view",
      "type": "function"
    },
    {
      "inputs": [
        {
          "internalType": "uint8",
          "name": "_index",
          "type": "uint8"
        }
      ],
      "name": "voteOnProposal",
      "outputs": [],
      "stateMutability": "nonpayable",
      "type": "function"
    }
  ],
  "bytecode": "0x6080604052348015600f57600080fd5b50611f998061001f6000396000f3fe608060405234801561001057600080fd5b50600436106100575760003560e01c8063013cf08b1461005c5780635521e3bf1461009057806367d7a419146100ac578063bcf2e026146100e1578063cceb68f5146100fd575b600080fd5b61007660048036038101906100719190611033565b61011b565b604051610087959493929190611184565b60405180910390f35b6100aa60048036038101906100a5919061121e565b61029a565b005b6100c660048036038101906100c1919061121e565b610700565b6040516100d89695949392919061133b565b60405180910390f35b6100fb60048036038101906100f69190611512565b610a58565b005b610105610c66565b60405161011291906117cd565b60405180910390f35b6001818154811061012b57600080fd5b906000526020600020906005020160009150905080600001805461014e9061181e565b80601f016020809104026020016040519081016040528092919081815260200182805461017a9061181e565b80156101c75780601f1061019c576101008083540402835291602001916101c7565b820191906000526020600020905b8154815290600101906020018083116101aa57829003601f168201915b5050505050908060010180546101dc9061181e565b80601f01602080910402602001604051908101604052809291908181526020018280546102089061181e565b80156102555780601f1061022a57610100808354040283529160200191610255565b820191906000526020600020905b81548152906001019060200180831161023857829003601f168201915b5050505050908060020160009054906101000a900461ffff16908060040160009054906101000a900461ffff16908060040160029054906101000a900460ff16905085565b600073ffffffffffffffffffffffffffffffffffffffff163373ffffffffffffffffffffffffffffffffffffffff1603610309576040517f08c379a00000000000000000000000000000000000000000000000000000000081526004016103009061189b565b60405180910390fd5b6001805490508160ff1610610353576040517f08c379a000000000000000000000000000000000000000000000000000000000815260040161034a90611907565b60405180910390fd5b6000803373ffffffffffffffffffffffffffffffffffffffff1673ffffffffffffffffffffffffffffffffffffffff16815260200190815260200160002060008260ff1660ff16815260200190815260200160002060009054906101000a900460ff16156103f6576040517f08c379a00000000000000000000000000000000000000000000000000000000081526004016103ed90611973565b60405180910390fd5b600060018260ff168154811061040f5761040e611993565b5b906000526020600020906005020190506003808111156104325761043161110d565b5b8160040160029054906101000a900460ff1660038111156104565761045561110d565b5b03610496576040517f08c379a000000000000000000000000000000000000000000000000000000000815260040161048d90611a34565b60405180910390fd5b60018160020160008282829054906101000a900461ffff166104b89190611a83565b92506101000a81548161ffff021916908361ffff16021790555080600301339080600181540180825580915050600190039060005260206000200160009091909190916101000a81548173ffffffffffffffffffffffffffffffffffffffff021916908373ffffffffffffffffffffffffffffffffffffffff16021790555060028160040160026101000a81548160ff0219169083600381111561055f5761055e61110d565b5b021790555060016000803373ffffffffffffffffffffffffffffffffffffffff1673ffffffffffffffffffffffffffffffffffffffff16815260200190815260200160002060008460ff1660ff16815260200190815260200160002060006101000a81548160ff0219169083151502179055508060040160009054906101000a900461ffff1661ffff168160020160009054906101000a900461ffff1661ffff16106106995760038160040160026101000a81548160ff0219169083600381111561062d5761062c61110d565b5b0217905550806000016040516106439190611b5c565b60405180910390207f57ee8a914ff41f9df2d7f3b88352952ab8f702bc31ab97fa3240d82460a9f3548260020160009054906101000a900461ffff1660405161068c9190611bae565b60405180910390a26106fc565b806000016040516106aa9190611b5c565b60405180910390207f21b4246139e955ef22ce210d80dafa91cc534302377e7dd1e96aae64694a4a9f8260020160009054906101000a900461ffff166040516106f39190611bae565b60405180910390a25b5050565b60608060006060600080600073ffffffffffffffffffffffffffffffffffffffff163373ffffffffffffffffffffffffffffffffffffffff1603610779576040517f08c379a00000000000000000000000000000000000000000000000000000000081526004016107709061189b565b60405180910390fd5b6001805490508760ff16106107c3576040517f08c379a00000000000000000000000000000000000000000000000000000000081526004016107ba90611c15565b60405180910390fd5b600060018860ff16815481106107dc576107db611993565b5b90600052602060002090600502016040518060c00160405290816000820180546108059061181e565b80601f01602080910402602001604051908101604052809291908181526020018280546108319061181e565b801561087e5780601f106108535761010080835404028352916020019161087e565b820191906000526020600020905b81548152906001019060200180831161086157829003601f168201915b505050505081526020016001820180546108979061181e565b80601f01602080910402602001604051908101604052809291908181526020018280546108c39061181e565b80156109105780601f106108e557610100808354040283529160200191610910565b820191906000526020600020905b8154815290600101906020018083116108f357829003601f168201915b505050505081526020016002820160009054906101000a900461ffff1661ffff1661ffff168152602001600382018054806020026020016040519081016040528092919081815260200182805480156109be57602002820191906000526020600020905b8160009054906101000a900473ffffffffffffffffffffffffffffffffffffffff1673ffffffffffffffffffffffffffffffffffffffff1681526020019060010190808311610974575b505050505081526020016004820160009054906101000a900461ffff1661ffff1661ffff1681526020016004820160029054906101000a900460ff166003811115610a0c57610a0b61110d565b5b6003811115610a1e57610a1d61110d565b5b81525050905080600001519650806020015195508060400151945080606001519350806080015192508060a0015191505091939550919395565b600073ffffffffffffffffffffffffffffffffffffffff163373ffffffffffffffffffffffffffffffffffffffff1603610ac7576040517f08c379a0000000000000000000000000000000000000000000000000000000008152600401610abe90611c81565b60405180910390fd5b610acf610ef2565b83816000018190525082816020018190525081816080019061ffff16908161ffff168152505060018160a001906003811115610b0e57610b0d61110d565b5b90816003811115610b2257610b2161110d565b5b8152505060018190806001815401808255809150506001900390600052602060002090600502016000909190919091506000820151816000019081610b679190611e2e565b506020820151816001019081610b7d9190611e2e565b5060408201518160020160006101000a81548161ffff021916908361ffff1602179055506060820151816003019080519060200190610bbd929190610f42565b5060808201518160040160006101000a81548161ffff021916908361ffff16021790555060a08201518160040160026101000a81548160ff02191690836003811115610c0c57610c0b61110d565b5b0217905550505083604051610c219190611f31565b60405180910390207fd676bd5a867d12796d6ef62a604d07c83bdce30aaf9471431d7772e1ba09e22283604051610c589190611f48565b60405180910390a250505050565b60606001805480602002602001604051908101604052809291908181526020016000905b82821015610ee957838290600052602060002090600502016040518060c0016040529081600082018054610cbd9061181e565b80601f0160208091040260200160405190810160405280929190818152602001828054610ce99061181e565b8015610d365780601f10610d0b57610100808354040283529160200191610d36565b820191906000526020600020905b815481529060010190602001808311610d1957829003601f168201915b50505050508152602001600182018054610d4f9061181e565b80601f0160208091040260200160405190810160405280929190818152602001828054610d7b9061181e565b8015610dc85780601f10610d9d57610100808354040283529160200191610dc8565b820191906000526020600020905b815481529060010190602001808311610dab57829003601f168201915b505050505081526020016002820160009054906101000a900461ffff1661ffff1661ffff16815260200160038201805480602002602001604051908101604052809291908181526020018280548015610e7657602002820191906000526020600020905b8160009054906101000a900473ffffffffffffffffffffffffffffffffffffffff1673ffffffffffffffffffffffffffffffffffffffff1681526020019060010190808311610e2c575b505050505081526020016004820160009054906101000a900461ffff1661ffff1661ffff1681526020016004820160029054906101000a900460ff166003811115610ec457610ec361110d565b5b6003811115610ed657610ed561110d565b5b8152505081526020019060010190610c8a565b50505050905090565b6040518060c001604052806060815260200160608152602001600061ffff16815260200160608152602001600061ffff16815260200160006003811115610f3c57610f3b61110d565b5b81525090565b828054828255906000526020600020908101928215610fbb579160200282015b82811115610fba5782518260006101000a81548173ffffffffffffffffffffffffffffffffffffffff021916908373ffffffffffffffffffffffffffffffffffffffff16021790555091602001919060010190610f62565b5b509050610fc89190610fcc565b5090565b5b80821115610fe5576000816000905550600101610fcd565b5090565b6000604051905090565b600080fd5b600080fd5b6000819050919050565b61101081610ffd565b811461101b57600080fd5b50565b60008135905061102d81611007565b92915050565b60006020828403121561104957611048610ff3565b5b60006110578482850161101e565b91505092915050565b600081519050919050565b600082825260208201905092915050565b60005b8381101561109a57808201518184015260208101905061107f565b60008484015250505050565b6000601f19601f8301169050919050565b60006110c282611060565b6110cc818561106b565b93506110dc81856020860161107c565b6110e5816110a6565b840191505092915050565b600061ffff82169050919050565b611107816110f0565b82525050565b7f4e487b7100000000000000000000000000000000000000000000000000000000600052602160045260246000fd5b6004811061114d5761114c61110d565b5b50565b600081905061115e8261113c565b919050565b600061116e82611150565b9050919050565b61117e81611163565b82525050565b600060a082019050818103600083015261119e81886110b7565b905081810360208301526111b281876110b7565b90506111c160408301866110fe565b6111ce60608301856110fe565b6111db6080830184611175565b9695505050505050565b600060ff82169050919050565b6111fb816111e5565b811461120657600080fd5b50565b600081359050611218816111f2565b92915050565b60006020828403121561123457611233610ff3565b5b600061124284828501611209565b91505092915050565b600081519050919050565b600082825260208201905092915050565b6000819050602082019050919050565b600073ffffffffffffffffffffffffffffffffffffffff82169050919050565b60006112a282611277565b9050919050565b6112b281611297565b82525050565b60006112c483836112a9565b60208301905092915050565b6000602082019050919050565b60006112e88261124b565b6112f28185611256565b93506112fd83611267565b8060005b8381101561132e57815161131588826112b8565b9750611320836112d0565b925050600181019050611301565b5085935050505092915050565b600060c082019050818103600083015261135581896110b7565b9050818103602083015261136981886110b7565b905061137860408301876110fe565b818103606083015261138a81866112dd565b905061139960808301856110fe565b6113a660a0830184611175565b979650505050505050565b600080fd5b600080fd5b7f4e487b7100000000000000000000000000000000000000000000000000000000600052604160045260246000fd5b6113f3826110a6565b810181811067ffffffffffffffff82111715611412576114116113bb565b5b80604052505050565b6000611425610fe9565b905061143182826113ea565b919050565b600067ffffffffffffffff821115611451576114506113bb565b5b61145a826110a6565b9050602081019050919050565b82818337600083830152505050565b600061148961148484611436565b61141b565b9050828152602081018484840111156114a5576114a46113b6565b5b6114b0848285611467565b509392505050565b600082601f8301126114cd576114cc6113b1565b5b81356114dd848260208601611476565b91505092915050565b6114ef816110f0565b81146114fa57600080fd5b50565b60008135905061150c816114e6565b92915050565b60008060006060848603121561152b5761152a610ff3565b5b600084013567ffffffffffffffff81111561154957611548610ff8565b5b611555868287016114b8565b935050602084013567ffffffffffffffff81111561157657611575610ff8565b5b611582868287016114b8565b9250506040611593868287016114fd565b9150509250925092565b600081519050919050565b600082825260208201905092915050565b6000819050602082019050919050565b600082825260208201905092915050565b60006115e582611060565b6115ef81856115c9565b93506115ff81856020860161107c565b611608816110a6565b840191505092915050565b61161c816110f0565b82525050565b600082825260208201905092915050565b600061163e8261124b565b6116488185611622565b935061165383611267565b8060005b8381101561168457815161166b88826112b8565b9750611676836112d0565b925050600181019050611657565b5085935050505092915050565b61169a81611163565b82525050565b600060c08301600083015184820360008601526116bd82826115da565b915050602083015184820360208601526116d782826115da565b91505060408301516116ec6040860182611613565b50606083015184820360608601526117048282611633565b91505060808301516117196080860182611613565b5060a083015161172c60a0860182611691565b508091505092915050565b600061174383836116a0565b905092915050565b6000602082019050919050565b60006117638261159d565b61176d81856115a8565b93508360208202850161177f856115b9565b8060005b858110156117bb578484038952815161179c8582611737565b94506117a78361174b565b925060208a01995050600181019050611783565b50829750879550505050505092915050565b600060208201905081810360008301526117e78184611758565b905092915050565b7f4e487b7100000000000000000000000000000000000000000000000000000000600052602260045260246000fd5b6000600282049050600182168061183657607f821691505b602082108103611849576118486117ef565b5b50919050565b7f5a65726f206e6f7420616c6c6f77656400000000000000000000000000000000600082015250565b600061188560108361106b565b91506118908261184f565b602082019050919050565b600060208201905081810360008301526118b481611878565b9050919050565b7f696e646578206973206f75742d6f662d626f756e640000000000000000000000600082015250565b60006118f160158361106b565b91506118fc826118bb565b602082019050919050565b60006020820190508181036000830152611920816118e4565b9050919050565b7f596f7527766520766f74656420616c7265616479000000000000000000000000600082015250565b600061195d60148361106b565b915061196882611927565b602082019050919050565b6000602082019050818103600083015261198c81611950565b9050919050565b7f4e487b7100000000000000000000000000000000000000000000000000000000600052603260045260246000fd5b7f546869732070726f706f73616c20686173206265656e2061636365707465642060008201527f616c726561647900000000000000000000000000000000000000000000000000602082015250565b6000611a1e60278361106b565b9150611a29826119c2565b604082019050919050565b60006020820190508181036000830152611a4d81611a11565b9050919050565b7f4e487b7100000000000000000000000000000000000000000000000000000000600052601160045260246000fd5b6000611a8e826110f0565b9150611a99836110f0565b9250828201905061ffff811115611ab357611ab2611a54565b5b92915050565b600081905092915050565b60008190508160005260206000209050919050565b60008154611ae68161181e565b611af08186611ab9565b94506001821660008114611b0b5760018114611b2057611b53565b60ff1983168652811515820286019350611b53565b611b2985611ac4565b60005b83811015611b4b57815481890152600182019150602081019050611b2c565b838801955050505b50505092915050565b6000611b688284611ad9565b915081905092915050565b6000819050919050565b6000611b98611b93611b8e846110f0565b611b73565b610ffd565b9050919050565b611ba881611b7d565b82525050565b6000602082019050611bc36000830184611b9f565b92915050565b7f496e646578206973206f75742d6f662d626f756e640000000000000000000000600082015250565b6000611bff60158361106b565b9150611c0a82611bc9565b602082019050919050565b60006020820190508181036000830152611c2e81611bf2565b9050919050565b7f5a65726f2061646472657373206e6f7420616c6c6f7765640000000000000000600082015250565b6000611c6b60188361106b565b9150611c7682611c35565b602082019050919050565b60006020820190508181036000830152611c9a81611c5e565b9050919050565b60006020601f8301049050919050565b600082821b905092915050565b600060088302611cee7fffffffffffffffffffffffffffffffffffffffffffffffffffffffffffffffff82611cb1565b611cf88683611cb1565b95508019841693508086168417925050509392505050565b6000611d2b611d26611d2184610ffd565b611b73565b610ffd565b9050919050565b6000819050919050565b611d4583611d10565b611d59611d5182611d32565b848454611cbe565b825550505050565b600090565b611d6e611d61565b611d79818484611d3c565b505050565b5b81811015611d9d57611d92600082611d66565b600181019050611d7f565b5050565b601f821115611de257611db381611ac4565b611dbc84611ca1565b81016020851015611dcb578190505b611ddf611dd785611ca1565b830182611d7e565b50505b505050565b600082821c905092915050565b6000611e0560001984600802611de7565b1980831691505092915050565b6000611e1e8383611df4565b9150826002028217905092915050565b611e3782611060565b67ffffffffffffffff811115611e5057611e4f6113bb565b5b611e5a825461181e565b611e65828285611da1565b600060209050601f831160018114611e985760008415611e86578287015190505b611e908582611e12565b865550611ef8565b601f198416611ea686611ac4565b60005b82811015611ece57848901518255600182019150602085019450602081019050611ea9565b86831015611eeb5784890151611ee7601f891682611df4565b8355505b6001600288020188555050505b505050505050565b6000611f0b82611060565b611f158185611ab9565b9350611f2581856020860161107c565b80840191505092915050565b6000611f3d8284611f00565b915081905092915050565b6000602082019050611f5d60008301846110fe565b9291505056fea2646970667358221220d56937e64c32247cc8c77b4aa4dacec267797f48bc8d55bf9f5dc249db046db764736f6c634300081b0033",
  "linkReferences": {},
  "deployedLinkReferences": {}
}